:100AA100010D3002080000020A0000020E000001E0
:020AB100102B08
:10080000758920759850758DFAD28EE50C643D700F
:1008100003020899120AB4E50C642B6068E50C64C5
:100820002D6062E50C642A605CE50C642F6056E57F
:100830000C643D6050E50DB43023E50C24D0FFE49A
:1008400034FFFEEF2509F509EE3508F508FEAF097E
:100850007C007D0A1208FF8E088F098034E50DB4F4
:10086000312FE50C24D0FFE434FFFEEF250BF50B10
:10087000EE350AF50AFEAF0B7C007D0A1208FF8EEA
:100880000A8F0B800CE50C643D6006750D31850CFC
:1008900010AF0C120ABD02080BE51024D660292403
:1008A000FD601624FE602E24047039E509250BF541
:1008B0000FE508350AF50E802BC3E509950BF50FFA
:1008C000E508950AF50E801CAC0AAD0BAE08AF0921
:1008D0001208FF800BAC0AAD0BAE08AF091209116C
:1008E0008E0E8F0FAF0FAE0E120A287F0A120ABDAE
:0F08F0007F45120ABD7F4E120ABD7F44020ABD2A
:080ABD008F993099FDC29922C6
:040A28008F828E83A8
:100A2C00E4FBFAC3E5836480948050107CFF7DFF67
:100A3C001208FF8E838F827F2D120ABDE5824583BB
:100A4C0060417C007D0AAF82AE83120966ED2BFB00
:100A5C00EC3A7C007D0AAF03FE1208FFAA06AB0736
:100A6C00AF82AE831209668E838F8280CFEB4A6091
:100A7C00237C007D0AAF03AE02120911ED2430FF76
:100A8C00120ABD7C007D0AAF03AE02120911AA0640
:040A9C00AB0780D94B
:010AA0002233
:090AB400C2983098FD85990C22CE
:0300000002099C56
:0C099C00787FE4F6D8FD7581100209E3B5
:1008FF00EF8DF0A4A8F0CF8CF0A428CE8DF0A42E0D
:02090F00FE22C6
:10091100BC000BBE0029EF8DF084FFADF022E4CCCA
:10092100F875F008EF2FFFEE33FEEC33FCEE9DEC93
:10093100984005FCEE9DFE0FD5F0E9E4CEFD22EDD9
:10094100F8F5F0EE8420D21CFEADF075F008EF2F23
:10095100FFED33FD4007985006D5F0F222C398FD14
:050961000FD5F0EA22B1
:10096600C2D5EC30E709B2D5E4C39DFDE49CFCEEAC
:1009760030E715B2D5E4C39FFFE49EFE120911C30A
:10098600E49DFDE49CFC800312091130D507C3E405
:060996009FFFE49EFE221B
:1009A800020800E493A3F8E493A34003F68001F25D
:1009B80008DFF48029E493A3F85407240CC8C33350
:1009C800C4540F4420C8834004F456800146F6DF1F
:1009D800E4800B0102040810204080900AA1E47E04
:1009E800019360BCA3FF543F30E509541FFEE49314
:1009F800A360010ECF54C025E060A840B8E493A3DB
:100A0800FAE493A3F8E493A3C8C582C8CAC583CA05
:100A1800F0A3C8C582C8CAC583CADFE9DEE780BEBD
:010AB3000042
:00000001FF
