:1008AC00859009AF901208001208E085900AAF906D
:1008BC001208001208E085900BAF90120800120885
:1008CC00E0E509250A250BF5086308FFAF081208B7
:0408DC00000208E02E
:0808FF008F993099FDC2992286
:02080000AE0741
:10080200EE540170047F3080027F318F0CEEC313EF
:10081200FE540170047F3080027F318F0DEEC313CE
:10082200FE540170047F3080027F318F0EEEC313BD
:10083200FE540170047F3080027F31AD07EEC31396
:10084200FE540170047F3080027F31AC07EEC31387
:10085200FE540170047F3080027F31AB07EEC31378
:10086200FE540170047F3080027F31AA07EEC31369
:10087200FE540170047F3080027F31EEC313FE12FA
:1008820008FFAF021208FFAF031208FFAF041208FD
:10089200FFAF051208FFAF0E1208FFAF0D1208FFDF
:0A08A200AF0C1208FF7F200208FFD0
:1008E000758901758CEE758A01D28C308DFDC28CB4
:0308F000C28D2294
:030000000208F300
:0C08F300787FE4F6D8FD75810E0208AC99
:00000001FF
